:100000000C9462000C9433080C940C080C948A0035
:100010000C948A000C948A000C948A000C948A0038
:100020000C948A000C948A000C948A000C948A0028
:100030000C948A000C948A000C948A000C948A0018
:100040000C94C2070C948A000C9490070C946A07D5
:100050000C948A000C948A000C948A000C948A00F8
:100060000C945A080C948A00000000002400270019
:100070002A0000000000250028002B0000000008D6
:10008000000201000003040700000000000000005F
:10009000010204081020408001020408102001021F
:1000A000040810200000000023002600290004049A
:1000B0000404040404040202020202020303030310
:1000C0000303790911241FBECFEFD8E0DEBFCDBFF7
:1000D00012E0A0E0B1E0E4E9FFE102C005900D927A
:1000E000A632B107D9F723E0A6E2B2E001C01D9223
:1000F000A43CB207E1F710E0C2E6D0E004C02197CB
:10010000FE010E94C20FC136D107C9F70E94320A10
:100110000C94C80F0C94000082E480937C008091C2
:100120007A00806480937A0080917A0086FDFCCF0B
:100130008091780090917900089508950895DC01E8
:10014000ED91FC910190F081E02D0994AF92BF9266
:10015000CF92DF92EF92FF920F931F93CF93DF9393
:100160006C017B018B01040F151FEB015E01AE18C2
:10017000BF08C017D10759F06991D601ED91FC91E4
:100180000190F081E02DC6010995892B79F7C50111
:10019000DF91CF911F910F91FF90EF90DF90CF9063
:1001A000BF90AF900895FC01538D448D252F30E012
:1001B000842F90E0821B930B541710F0CF96089574
:1001C00001970895FC01918D828D981761F0A28DA1
:1001D000AE0FBF2FB11D5D968C91928D9F5F9F7367
:1001E000928F90E008958FEF9FEF0895FC01918D1D
:1001F000828D981731F0828DE80FF11D858D90E08A
:1002000008958FEF9FEF0895FC01918D228D892F26
:1002100090E0805C9F4F821B91098F73992708950E
:100220008EEF92E00E94040121E0892B09F420E086
:10023000822F089580E090E0892B29F00E94100120
:1002400081110C9400000895FC01A48DA80FB92F12
:10025000B11DA35ABF4F2C91848D90E001968F73EE
:100260009927848FA689B7892C93A089B1898C910D
:10027000837080648C93938D848D981306C002885C
:10028000F389E02D80818F7D80830895EF92FF9226
:100290000F931F93CF93DF93EC0181E0888F9B8DA9
:1002A0008C8D98131AC0E889F989808185FF15C063
:1002B0009FB7F894EE89FF896083E889F989808186
:1002C0008370806480839FBF81E090E0DF91CF9155
:1002D0001F910F91FF90EF900895F62E0B8D10E077
:1002E0000F5F1F4F0F731127E02E8C8D8E110CC0E6
:1002F0000FB607FCFACFE889F989808185FFF5CF31
:10030000CE010E942401F1CFEB8DEC0FFD2FF11DEA
:10031000E35AFF4FF0829FB7F8940B8FEA89FB896D
:1003200080818062CFCFCF93DF93EC01888D8823CB
:10033000B9F0AA89BB89E889F9898C9185FD03C048
:10034000808186FD0DC00FB607FCF7CF8C9185FF2D
:10035000F2CF808185FFEDCFCE010E942401E9CF4D
:10036000DF91CF91089590E0FC01E458FF4F249174
:10037000FC01E057FF4F3491FC01E255FF4FE4913F
:10038000EE23C9F0222339F0233001F1A8F4213003
:1003900019F1223029F1F0E0EE0FFF1FEE58FF4F68
:1003A000A591B4918FB7F894EC91611126C0309566
:1003B0003E233C938FBF08952730A9F02830C9F021
:1003C000243049F7809180008F7D03C080918000A8
:1003D0008F7780938000DFCF84B58F7784BDDBCFAC
:1003E00084B58F7DFBCF8091B0008F778093B00074
:1003F000D2CF8091B0008F7DF9CF3E2BDACFCF9353
:10040000DF9390E0FC01E057FF4F249182559F4F0E
:10041000FC0184918823C9F090E0880F991FFC01AA
:10042000E859FF4FA591B491FC01EE58FF4FC591DB
:10043000D49161110DC09FB7F8948C9120958223BF
:100440008C938881282328839FBFDF91CF910895C3
:10045000623051F49FB7F8943C91822F80958323AA
:100460008C93E8812E2BEFCF8FB7F894EC912E2B45
:100470002C938FBFEACF3FB7F8948091E30290911D
:10048000E402A091E502B091E60226B5A89B05C062
:100490002F3F19F00196A11DB11D3FBFBA2FA92F03
:1004A000982F8827BC01CD01620F711D811D911D00
:1004B00042E0660F771F881F991F4A95D1F708956C
:1004C0008F929F92AF92BF92CF92DF92EF92FF9264
:1004D0004B015C010E943B026B017C010E943B02CC
:1004E0006C197D098E099F09683E7340810591054D
:1004F000A8F321E0821A9108A108B10888EEC80E7D
:1005000083E0D81EE11CF11C81149104A104B10404
:1005100029F7FF90EF90DF90CF90BF90AF909F9022
:100520008F900895089520919402260F3327331F4A
:1005300021323105ECF42091B802FC0190E080E01A
:10054000243069F082E00895A09194022191AC01D9
:100550004C585D4FA40FB52FB11D2C9301968617F3
:1005600098F380919402680F6093940280E008955C
:1005700081E008951092B80281E08093BA0210924F
:10058000B90261E082E10E94B30161E083E10E946F
:10059000B301E9EBF0E080818E7F808380818D7FE5
:1005A000808388E48093B80085E48093BC0008953C
:1005B000CF93DF9391E0909373028823B9F0C091B9
:1005C000B800D091BA008091BC008A7B8093BC00B7
:1005D00060E082E10E94B30160E083E10E94B30128
:1005E0000E94BA02D093BA00C093B800DF91CF91B5
:1005F00008950895E091EE028091ED02E81730F43D
:10060000F0E0E25BFD4F808190E008958FEF9FEF77
:1006100008959091EE028091ED022FEF3FEF981731
:1006200048F4E92FF0E0E25BFD4F208130E09F5F6E
:100630009093EE02C90108958091ED029091EE022F
:10064000891B990B0895CF92DF92EF92FF920F933F
:100650001F93CF93DF937C01CB018A0120914D0240
:10066000222389F0EB016B01C40ED51ECC15DD05EC
:1006700069F06991D701ED91FC910190F081E02D35
:10068000C7010995F3CF642F0E949302C801DF913F
:10069000CF911F910F91FF90EF90DF90CF90089531
:1006A000CF93DF931F92CDB7DEB7698320914D02C0
:1006B0002223F9F02091EB02203258F021E030E0C3
:1006C000FC013383228390E080E00F90DF91CF9193
:1006D00008958091EC02E82FF0E0E35DFD4F9981F1
:1006E00090838F5F8093EC028093EB0281E090E037
:1006F000ECCF61E0CE0101960E949302F7CFCF923A
:10070000DF92EF92FF920F931F93CF93DF93FC0141
:10071000C48121E020934D02C0932C021092EC0280
:100720001092EB028485682B8BE993E00E945003C2
:10073000D091EB02D13208F092C00E943B026B01D3
:100740007C018091B802811165C082E08093B8027B
:1007500081E08093BA028FEF8093B7021092DC029F
:10076000D093DB02ADE2B2E0EBEBF2E080E0D81335
:1007700085C01092DD028091DD02CC0FC82BC093A2
:10078000DD028091B902813009F07CC01092B9027B
:100790000E943B026B017C018091DD028093BB00D3
:1007A00080916F0290917002A0917102B0917202DB
:1007B000892B8A2B8B2B99F00E943B0200916F02B0
:1007C0001091700220917102309172026C197D09B2
:1007D0008E099F090617170728073907E0F180914E
:1007E000BC0083FDD9CF85EC8093BC000E943B0206
:1007F0006B017C018091B802823009F445C0809180
:10080000B7028F3F61F18091B702803241F1809150
:10081000B70225C080916F0290917002A091710281
:10082000B0917202892B8A2B8B2B09F48ACF0E94FC
:100830003B0200916F021091700220917102309181
:1008400072026C197D098E099F0906171707280780
:10085000390708F076CF80916E020E94D80210927C
:10086000EC021092EB0210924D02DF91CF911F919A
:100870000F91FF90EF90DF90CF9008959D9191930D
:100880008F5F75CF85EEB0CF80916F02909170022F
:10089000A0917102B0917202892B8A2B8B2B09F4E3
:1008A000A9CF0E943B0200916F021091700220912B
:1008B0007102309172026C197D098E099F09061729
:1008C00017072807390708F095CFC5CF089590E09E
:1008D00080E00895DC01ED91FD918081ED91FD9125
:1008E0009081ED91FD916C9163708E2309F06460AD
:1008F0009F2309F06860E7E8F4E0E60FF11D6595D5
:1009000065956D936D917D918D919D91099423C015
:100910001AC012C016C010C01EC009C014C013C037
:1009200006C019C009C00DC007C00DC014C0625078
:100930007040804090400BC06150704080409040BB
:1009400006C06E5F01C06F5F7F4F8F4F9F4F9E93BA
:100950008E937E936E9308958091A7039091A80340
:100960000C946A048091A9039091AA030C946A04E0
:100970000F931F93CF938C01C62F0E947F036C2F80
:100980006460C8010E947F036C2F6B7FC8010E94C6
:100990007F0383EC90E00197F1F7CF911F910F91C6
:1009A00008950F931F93CF93DF938C01D62FC42FFD
:1009B000607F642B0E94B80480E1D89FB0011124AD
:1009C0006C2BC801DF91CF911F910F910C94B8044B
:1009D000CF93DF93CDB7DEB728970FB6F894DEBF7D
:1009E0000FBECDBF98E0EAE3F1E0DE011196019081
:1009F0000D929A95E1F79091BF03961708F46FEF67
:100A0000262F30E0220F331F41E050E04C0F5D1FD6
:100A1000240F351FF9016081680F606840E087EBA3
:100A200093E028960FB6F894DEBF0FBECDBFDF91DE
:100A3000CF910C94D10440E061E087EB93E00E94F9
:100A4000D1048BE39FE10197F1F78091C0038823E4
:100A500021F060E080E00C94E804089541E00E94F9
:100A6000D10481E090E008950F931F93CF93DF931B
:100A70008B0198E0899FB0011124606440E087EB0E
:100A800093E00E94D104E801085F1F4F699187EB52
:100A900093E00E942E05C017D107C1F7DF91CF91D7
:100AA0001F910F910895FB0101900020E9F7319704
:100AB000AF01461B570BDC01ED91FC910280F381E5
:100AC000E02D09948F929F92AF92BF92EF92FF9286
:100AD0000F931F93CF93DF93CDB7DEB7A1970FB6D8
:100AE000F894DEBF0FBECDBF7C01FA01CB0119A285
:100AF000223008F42AE08E010F5D1F4F822E912CC8
:100B0000B12CA12CBF01A50194010E94780FF9011D
:100B1000CA016A300CF5605DD8016E938D01232BFC
:100B2000242B252B79F790E080E0109721F0BD0170
:100B3000C7010E945305A1960FB6F894DEBF0FBE01
:100B4000CDBFDF91CF911F910F91FF90EF90BF909C
:100B5000AF909F908F900895695CDECF242FAB01FA
:100B600070E060E00C946205CF92DF92EF92FF920A
:100B70000F931F93CF93DF936B01770FEE08FF085E
:100B80004A305105F1F42AE0F7FE1CC0EC016DE299
:100B90000E949F008C0144275527BA014C195D091A
:100BA0006E097F092AE0CE010E946205800F911F25
:100BB000DF91CF911F910F91FF90EF90DF90CF9039
:100BC0000895242FB701A601DF91CF911F910F91B6
:100BD000FF90EF90DF90CF900C946205CF93DF935E
:100BE000BC018EEF92E00E945305EC0162E771E0D8
:100BF0008EEF92E00E9453058C0F9D1FDF91CF91E5
:100C00000895CF93DF934AE050E0BC018EEF92E06D
:100C10000E94AE05EC0162E771E08EEF92E00E9467
:100C200053058C0F9D1FDF91CF9108950C945305B0
:100C300085ED8093BC0080916F0290917002A0912D
:100C40007102B09172020796A11DB11D23E0B69505
:100C5000A795979587952A95D1F72091BC0024FDFB
:100C600003C01092B802089540916F025091700233
:100C70006091710270917202452B462B472B69F3EC
:100C80000097A105B10541F02AE22A95F1F700C0CD
:100C90000197A109B109E1CF80916E020C94D802AD
:100CA0000C946A0FEF92FF920F931F93CF93DF93F1
:100CB000883E23E0920714F087EE93E0EC0197FF63
:100CC00002C0D0E0C0E0E4E6F0E0CE01BF010E9447
:100CD0009A0F9C01CE01821B930BBF010E949A0FB9
:100CE0008B0170932B0260932A028AE0E82EF12C8C
:100CF000C901B7010E949A0FFC01C9018E1B9F0B0D
:100D0000B7010E949A0F7093290260932802F09312
:100D10002702E093260260E089E00E94E8044AE0AE
:100D200050E0B80187EB93E00E94B40565E771E0FD
:100D300087EB93E00E9416066091280270912902C9
:100D40004AE050E087EB93E00E94B40560912602F0
:100D5000709127024AE050E087EB93E00E94B405CF
:100D60000091260210912702B80193E075956795CE
:100D70009A95E1F761708DE00E94B301B801759515
:100D800067957595679561708CE00E94B301B80115
:100D90007595679561708BE00E94B301602F61705B
:100DA0008AE00E94B3010091280210912902B80143
:100DB00043E0759567954A95E1F7617089E00E9477
:100DC000B301B8017595679575956795617088E071
:100DD0000E94B301B80175956795617087E00E9424
:100DE000B301602F617086E00E94B30100912A0276
:100DF00010912B02B801F3E075956795FA95E1F72C
:100E0000617085E00E94B301B8017595679575958D
:100E10006795617084E00E94B301B801759567958C
:100E2000617083E00E94B301602F617082E00E94D4
:100E3000B301CE0199279093F2028093F102D093EF
:100E4000EF021092F00240E150E0BE018EEF92E01E
:100E50000E94B40567E771E08EEF92E00E941606EB
:100E60006091F1027091F20240E150E08EEF92E069
:100E70000E94B40567E771E08EEF92E00E941606CB
:100E80006091EF027091F00240E150E08EEF92E04D
:100E90000E94B40562E771E08EEF92E00E94530574
:100EA0006091F10281E090E00E9450066AE070E0FB
:100EB00080E090E00E9460026091EF0282E090E0AA
:100EC000DF91CF911F910F91FF90EF900C945006FE
:100ED0000C94620F1F920F920FB60F9211242F9352
:100EE0003F934F935F936F937F938F939F93AF93B2
:100EF000BF93EF93FF938EEF92E00E942401FF9146
:100F0000EF91BF91AF919F918F917F916F915F9181
:100F10004F913F912F910F900FBE0F901F901895FA
:100F20001F920F920FB60F9211242F938F939F93BE
:100F3000EF93FF93E0910E03F0910F038081E09116
:100F40001403F091150382FD1BC09081809117035B
:100F50008F5F8F7320911803821741F0E091170380
:100F6000F0E0E250FD4F958F80931703FF91EF91D2
:100F70009F918F912F910F900FBE0F901F901895FA
:100F80008081F4CF1F920F920FB60F9211242F93EE
:100F90003F938F939F93AF93BF938091DF02909184
:100FA000E002A091E102B091E2023091DE0223E082
:100FB000230F2D3758F50196A11DB11D2093DE0298
:100FC0008093DF029093E002A093E102B093E202EB
:100FD0008091E3029091E402A091E502B091E602D3
:100FE0000196A11DB11D8093E3029093E402A093AA
:100FF000E502B093E602BF91AF919F918F913F912F
:101000002F910F900FBE0F901F90189526E8230F79
:101010000296A11DB11DD2CF1F920F920FB60F9253
:1010200011242F933F934F935F936F937F938F93ED
:101030009F93AF93BF93EF93FF93E0910201F091E1
:1010400003010995FF91EF91BF91AF919F918F910E
:101050007F916F915F914F913F912F910F900FBEB4
:101060000F901F9018951F920F920FB60F92112498
:101070002F933F934F935F936F937F938F939F93A0
:10108000AF93BF93EF93FF93E0910001F0910101C3
:101090000995FF91EF91BF91AF919F918F917F91B2
:1010A0006F915F914F913F912F910F900FBE0F90D5
:1010B0001F9018951F920F920FB60F9211242F9325
:1010C0003F934F935F936F937F938F939F93AF93D0
:1010D000BF93EF93FF938091B900887F803609F426
:1010E0004AC0F0F5883209F4A7C018F5803109F438
:1010F0009BC0B8F4882309F4F9C0883009F494C07F
:10110000FF91EF91BF91AF919F918F917F916F91DF
:101110005F914F913F912F910F900FBE0F901F90B5
:101120001895883109F488C0803251F78093B7024E
:1011300014C0803409F49DC040F48033B9F388337F
:10114000F9F68093B70285ECB0C0803509F485C00C
:10115000883509F496C0883499F60E941806D0CFD5
:10116000883909F48CC038F5883729F050F488366E
:1011700011F0803729F683E08093B8021092B6020E
:1011800057C0883809F47BC0803919F0803809F0DD
:10119000B7CF8091B602803208F071C0E091B602FC
:1011A00081E08E0F8093B6028091BB00F0E0EA569A
:1011B000FD4F80833DC0803B39F0E0F4803A09F474
:1011C00079C0883A09F09CCF84E08093B8021092ED
:1011D000950210929402E091E902F091EA020995D9
:1011E0008091940281110FC081E08093940210924B
:1011F000740209C0803C09F4A6CF883C09F4A3CF4F
:10120000883B09F07DCFE091950281E08E0F8093BD
:101210009502F0E0EC58FD4F80818093BB009091E7
:1012200095028091940229C08091DD028093BB00D9
:1012300085EC8093BC0064CF9091DC028091DB024E
:10124000981758F5E091DC0281E08E0F8093DC0264
:10125000F0E0E554FD4F8081E9CFE091DC0281E0D0
:101260008E0F8093DC028091BB00F0E0E554FD4FCF
:1012700080839091DC028091DB029817C8F285E8A8
:10128000D8CFE091DC0281E08E0F8093DC02809168
:10129000BB00F0E0E554FD4F80838091BA028111DC
:1012A0005CCF81E08093B90284EA8093BC00109205
:1012B000B80226CF85EC8093BC001092B8028091D2
:1012C000B602803230F4E091B602F0E0EA56FD4F0B
:1012D00010826091B60270E0E091E702F091E802BE
:1012E00086E992E009951092B6020ACF1092B702F1
:1012F00034CFCF93DF93109201031092000388EE56
:1013000093E0A0E0B0E08093020390930303A093E6
:101310000403B093050326E431E03093FF022093E9
:10132000FE0225EC30E030930B0320930A0324ECFB
:1013300030E030930D0320930C0320EC30E0309329
:101340000F0320930E0321EC30E030931103209320
:10135000100322EC30E0309313032093120326ECA9
:1013600030E030931503209314031092170310926A
:1013700018031092190310921A0310929E031092F0
:101380009D0380939F039093A003A093A103B09328
:10139000A20388E591E090939C0380939B031092B5
:1013A000BA031092B9038AE691E09093B803809350
:1013B000B7031092C00387E28093BB0380E1809360
:1013C000C10382E08093C2031092C30362E08EE007
:1013D0000E94FF0162E08FE00E94FF01ECEBF0E071
:1013E000E491F0E0EE0FFF1FEC55FF4FA591B49193
:1013F000B093AC03A093AB03EEE9F0E044914093CB
:10140000AF03EDEBF0E0E491F0E0EE0FFF1FEC55E1
:10141000FF4FC591D491D093AE03C093AD03EFE9D4
:10142000F0E0E491E093B0031092B2031092B303A2
:101430001092B4031092B5032BE33FE1C901019769
:10144000F1F79C91842F892391E009F490E0888141
:10145000E82309F092609093B1031092B603DF91F4
:10146000CF910895789484B5826084BD84B58160FD
:1014700084BD85B5826085BD85B5816085BD80915F
:101480006E00816080936E001092810080918100D7
:1014900082608093810080918100816080938100CF
:1014A000809180008160809380008091B100846091
:1014B0008093B1008091B00081608093B0008091F2
:1014C0007A00846080937A0080917A0082608093B1
:1014D0007A0080917A00816080937A0080917A000E
:1014E000806880937A001092C1001092EE021092F0
:1014F000ED021092EC021092EB020E94BA028DE90A
:1015000090E09093EA028093E9028EE990E0909354
:10151000E8028093E7021092BC038091C2038230FC
:1015200018F098E09093BC038093BF0362E370E0EF
:1015300080E090E00E9460026091C30387EB93E03B
:101540000E947F0368EE73E080E090E00E946002FA
:1015500060E387EB93E00E94B804CBE4D6E4CE01CD
:101560000197F1F760E387EB93E00E94B8042197BD
:10157000F1F760E387EB93E00E94B80483E592E023
:101580000197F1F760E287EB93E00E94B804609165
:10159000BC03606240E087EB93E00E94D10484E0EA
:1015A0008093BD0340E06CE087EB93E00E94D104A0
:1015B0000E941B05C2E0C093BE0340E066E087EBDB
:1015C00093E00E94D10440E062E087EB93E00E9448
:1015D000D1048BE39FE10197F1F788E08093C30387
:1015E00060E087EB93E00E947F036CE271E080E0B3
:1015F0000E94340564E271E081E00E9434056CE1F0
:1016000071E082E00E94340564E171E083E00E94B1
:1016100034056CE071E084E00E94340564E071E020
:1016200085E00E94340561E08DE00E94FF0161E0E9
:101630008CE00E94FF0161E08BE00E94FF0161E00D
:101640008AE00E94FF0161E089E00E94FF0161E001
:1016500088E00E94FF0161E087E00E94FF0161E0F5
:1016600086E00E94FF0161E085E00E94FF0161E0E9
:1016700084E00E94FF0161E083E00E94FF0161E0DD
:1016800082E00E94FF0160E08EE00E94FF0161E0C5
:101690008EE00E94B30160E08FE00E94FF0161E0F4
:1016A0008FE00E94B301F8948AE090E0A0E0B0E0FF
:1016B0008093B2039093B303A093B403B093B503A4
:1016C0007894E0910E03F0910F03C083E0910A0338
:1016D000F0910B031082E0910C03F0910D038FEC5D
:1016E000808310921603E0911203F091130386E0B9
:1016F0008083E0911003F0911103808180618083E9
:10170000E0911003F0911103808188608083E09163
:101710001003F0911103808180688083E0911003B1
:10172000F091110380818F7D808390E080E00E94A2
:1017300068078093F602982F91709093F80286952F
:1017400081708093F40281E090E00E946807C82FC6
:10175000D0E0D093F202C093F10282E090E00E94C8
:10176000680790E09093F0028093EF02982F88270B
:101770008C2B9D2B9093FC028093FB0283E090E0E6
:101780000E946807C82FD0E0D093F202C093F10204
:1017900084E090E00E94680790E09093F0028093CC
:1017A000EF02982F88278C2B9D2B9093FA02809321
:1017B000F90268EE73E080E090E00E94600289E741
:1017C00091E00E94EE0567E871E08EEF92E00E94E2
:1017D00016066091FB027091FC0240E150E08EEF32
:1017E00092E00E94AE0567E771E08EEF92E00E9402
:1017F00016066091F1027091F20240E150E08EEF26
:1018000092E00E94B40567E771E08EEF92E00E94DB
:1018100016066091EF027091F00240E150E08EEF09
:1018200092E00E94B40567E771E08EEF92E00E94BB
:1018300016064091F60250E070E060E022E08EEF84
:1018400092E00E94620562E771E08EEF92E00E94F2
:10185000530561E971E087EB93E00E94160668EE9C
:1018600073E080E090E00E9460020E941B0560E04F
:1018700080E00E94E8048091F40261EA71E088232C
:1018800011F06BEA71E087EB93E00E94160660E0CE
:101890008CE00E94E80465EB71E087EB93E00E9426
:1018A000160661E080E00E94E8048091F8026AEB8D
:1018B00071E0882311F060EC71E087EB93E00E9407
:1018C000160661E086E00E94E80460E087EB93E0A2
:1018D0000E949F0061E087EB93E00E949F0062E01E
:1018E00087EB93E00E949F0063E087EB93E00E9408
:1018F0009F0064E087EB93E00E949F0065E087EB28
:1019000093E00E949F008091FB029091FC020E9454
:10191000520680E0E82E80E0F82E9AE0492E512C05
:10192000612C712C07EE13E0CC24C394D12C34E647
:10193000A32EB12C8091B603823008F030C1F89408
:101940008BEA93E00E946A048091B2039091B30302
:10195000A091B403B091B5037894409136015091B1
:1019600037016091380170913901481759076A07AA
:101970007B07D9F18093360190933701A09338010A
:10198000B09339018E309105A105B1050CF474C1F5
:10199000F8944092B2035092B3036092B4037092F1
:1019A000B50378948091FD028111FBC08091FB0208
:1019B0009091FC022091340130913501820F931FE8
:1019C000883E23E0920708F075C19093FC02809353
:1019D000FB028091FB029091FC020E940106809123
:1019E000FB029091FC020E9452060E948C00EC01C6
:1019F000C83E83E0D8070CF0C6C064E670E080E023
:101A000090E00E946002CE018D589109099770F50F
:101A100060E084E00E94E80468ED71E087EB93E009
:101A20000E9416068091F802882331F08091F90215
:101A30009091FA020E9452060E948C00EC01883EAE
:101A40009340D4F38091F802882331F08091FB0217
:101A50009091FC020E94520660E084E00E94E8043B
:101A60006BED71E087EB93E00E941606CE01865481
:101A70009140099778F58091F70281113FC18091DB
:101A8000F802811127C18EED91E00E94EE0581E000
:101A90008093F80261E080E00E94E80460EC71E06D
:101AA00087EB93E00E9416066091F60261606093F6
:101AB000F60290E080E00E94500664E670E080E06C
:101AC00090E00E9460020E948C00EC01C83E83E01E
:101AD000D807CCF3CE01825F91400E9770F58091CC
:101AE000F50281117DC18091F402811165C189EFF8
:101AF00091E00E94EE0581E08093F40260E080E0D6
:101B00000E94E80460E072E087EB93E00E94160612
:101B10006091F60262606093F60290E080E00E94BD
:101B2000500664E670E080E090E00E9460020E944F
:101B30008C00EC01883E9340D4F3C35ED2402997D9
:101B400010F58091F302811156C181E192E00E946B
:101B5000EE0581E08093F3028093F7028093F50213
:101B6000B0923501A092340161E080E00E94E80467
:101B70006AE172E087EB93E00E9416060E948C00F7
:101B8000883E9340DCF3E114F10409F4D3CE0E94C3
:101B90001001882309F4CECE0E940000CBCEF89429
:101BA000D3CE8091F9029091FA020196883E23E00B
:101BB000920708F08AC09093FA028093F90280910C
:101BC000F9029091FA020E94010661E085E00E940C
:101BD000E8048091F9029091FA020A97A0F466EC69
:101BE00071E087EB93E00E94160661E08BE00E94B3
:101BF000E8046091F9027091FA024AE050E087EB44
:101C000093E00E94AE058091F9029091FA020B9741
:101C100089359105A0F46DEC71E087EB93E00E94AB
:101C2000160661E08AE00E94E8046091F902709172
:101C3000FA024AE050E087EB93E00E94AE05809103
:101C4000F9029091FA028536910508F4CECE63ED43
:101C500071E087EB93E00E94160661E089E00E9444
:101C6000E8046091F9027091FA024AE050E087EBD3
:101C700093E00E94AE05B9CE0797A105B1050CF01F
:101C8000B4CEF8944092B2035092B3036092B4037E
:101C90007092B50378948091FD02811110C08091FB
:101CA000FB029091FC022091340130913501821B9E
:101CB000930B86CE1093FC020093FB028ACE809198
:101CC000F9029091FA02019771CF1093FA020093F2
:101CD000F90275CF85EE91E00E94EE051092F802B0
:101CE00061E080E00E94E8046AEB71E087EB93E03A
:101CF0000E9416066091F6026E7FD9CE8DEE91E0BD
:101D00000E94EE0581E08093FD0261E085E00E9483
:101D1000E8048091F9029091FA020A97A0F466EC27
:101D200071E087EB93E00E94160661E08BE00E9471
:101D3000E8046091F9027091FA024AE050E087EB02
:101D400093E00E94AE058091F9029091FA020B9700
:101D500089359105A0F46DEC71E087EB93E00E946A
:101D6000160661E08AE00E94E8046091F902709131
:101D7000FA024AE050E087EB93E00E94AE058091C2
:101D8000F9029091FA028536910508F496CE63ED3A
:101D900071E087EB93E00E94160661E089E00E9403
:101DA000E8046091F9027091FA024AE050E087EB92
:101DB00093E00E94AE0581CE84E092E00E94EE05A1
:101DC0001092F40260E080E00E94E80464E072E0B7
:101DD00087EB93E00E9416066091F6026D7F9BCE22
:101DE00061E085E00E94E80468E072E087EB93E040
:101DF0000E94160696CE80E292E00E94EE051092B6
:101E0000F3021092F7021092FD021092F502D092A6
:101E10003501C092340161E080E00E94E8048091C5
:101E2000F8026AEB71E0882311F060EC71E087EB57
:101E300093E00E94160661E085E00E94E80467E7EF
:101E400071E087EB93E00E94160660E087EB93E079
:101E50000E949F0061E087EB93E00E949F0062E098
:101E600087EB93E00E949F0063E087EB93E00E9482
:101E70009F0064E087EB93E00E949F0065E087EBA2
:101E800093E00E949F006091F9027091FA02CB01E9
:101E900099279093F2028093F1027093EF021092CF
:101EA000F00283E090E00E9450066AE070E080E07B
:101EB00090E00E9460026091EF0284E090E00E9456
:101EC00050065CCEF999FECF92BD81BDF89A992754
:101ED00080B50895262FF999FECF1FBA92BD81BD16
:101EE00020BD0FB6F894FA9AF99A0FBE019608959C
:101EF000A1E21A2EAA1BBB1BFD010DC0AA1FBB1F0E
:101F0000EE1FFF1FA217B307E407F50720F0A21B7F
:101F1000B30BE40BF50B661F771F881F991F1A94EC
:101F200069F760957095809590959B01AC01BD0116
:101F3000CF01089597FB072E16F4009407D077FD84
:101F400009D00E94AE0F07FC05D03EF49095819514
:101F50009F4F0895709561957F4F0895AA1BBB1BF5
:101F600051E107C0AA1FBB1FA617B70710F0A61B99
:101F7000B70B881F991F5A95A9F780959095BC01BA
:101F8000CD010895EE0FFF1F0590F491E02D099407
:041F9000F894FFCFF3
:101F9400920292021F1F1F1F1F1F1F1F00001F1FDF
:101FA4001F1F1F1F000000001F1F1F1F0000000035
:101FB400001F1F1F0000000000001F1F110A041152
:101FC4000A040404010019FCFFFF0000400014008F
:101FD4005400000000004601A600D3009301040150
:101FE400E200F60000000000500323036704F90236
:101FF4001C030903FA02000000002E05A600670472
:1020040066040D0A002C0020004650324E20526512
:102014006164792E2E2E006C617374736574203A9A
:10202400004650324E20636F6E74726F6C6C657232
:102034000056464F2052583A3134004D454D2052F7
:10204400583A313400204D687A005B53494D5D00A5
:102054005B4455505D004455502D3030004455507C
:102064002D30004455502D005458005258006475CA
:10207400706C65780073696D706C65780064757058
:102084006C6578206D656E75004D656D6F727900B5
:102094004D454D0056464F004D454D534156453A2A
:1020A4000066756E6374696F6E005B46554E5D0025
:0620B4006261636B000095
:00000001FF
